:1000000012C02CC02BC02AC029C028C027C026C0BF
:1000100025C024C023C022C021C020C01FC01EC0D4
:100020001DC01CC01BC011241FBECFE5D4E0DEBF25
:10003000CDBF10E0A0E6B0E0E8EAF6E002C005902F
:100040000D92AA36B107D9F710E0AAE6B0E001C0D8
:100050001D92A937B107E1F7D0D224C3D1CF83E0F5
:1000600084BB86E087BB11BA089520916A0090E0B6
:1000700002C09F5F2AE09817E0F320936A009093F4
:100080006B00089520916A0030916B000EC020E053
:1000900030E040E04F5F4031E9F72F5F3F4F2436BB
:1000A0003105B9F7019730E12AE0009781F72093F5
:1000B0006A0030936B000895C79A81E090E0E2DF18
:1000C000C79808951F93182F81E090E0DBDFC59A51
:1000D00012BBF2DF1F910895EF92FF920F931F93CF
:1000E000182F64E6ACD2482F282F30E08CE99FEF20
:1000F000289F7001299FF00C389FF00C1124C70134
:10010000810F911D6AE070E0A6D2062F842F805DDA
:10011000D9DF802F805DD6DF105D1E0D86EF9FEF4B
:10012000089F002D1124802F810FCCDF1F910F918C
:10013000FF90EF9008951F93182F82E090E0A2DFC8
:1001400088B38F7988BB12BBB7DF1F9108958054A5
:10015000F2DF08958058EFDF0895EF92FF921F932A
:10016000CF93DF937C01C59A88B38F7388BB10E06F
:100170000BC081E090E086DF103111F480ECDBDF12
:10018000888182BB99DF1F5FE701C10FD11D888184
:10019000882379F7DF91CF911F91FF90EF90089519
:1001A0008FEF81BB87BB8FE090E06CDF88B38F79E6
:1001B00088BB88E3C0DF8EE0BEDF80E8BCDF089547
:1001C00010927400A89AA998C19AC29820916A00C6
:1001D00090E002C09F5F2AE09817E0F3A898A998E2
:1001E000C298C19898EC981B80E002C08F5F2AE00B
:1001F0008917E0F320936A0080936B0008951092B2
:100200007400A99AA898C29AC19820916A0090E0B7
:1002100002C09F5F2AE09817E0F3A898A998C298B7
:10022000C19898EC981B80E002C08F5F2AE0891784
:10023000E0F320936A0080936B000895382F81E0EB
:1002400080937400C19AC298A898A99820916A00D6
:1002500080E002C08F5F2AE08317E0F3A898A99896
:10026000C298C19898EC931B80E002C08F5F2AE08F
:100270008917E0F320936A0080936B000895382F6C
:1002800082E080937400A89AA998C198C29820919E
:100290006A0080E002C08F5F2AE08317E0F3A8982D
:1002A000A998C298C19898EC931B80E002C08F5F18
:1002B0002AE08917E0F320936A0080936B00089589
:1002C000A898A998C298C1980895859B12C0879B49
:1002D00008C0869B03C08AE590E011C08AE590E0E3
:1002E00018C0869B03C088E790E00FC088E790E0C5
:1002F00010C0879B06C0869906C082E890E060DF48
:100300000895869B04C084E690E098DF089584E613
:1003100090E0B5DF089580B38B71809378008230D0
:1003200019F486E990E04CDF80917800803119F46F
:1003300086E990E064DF80917800883019F488E7DE
:1003400090E07CDF809178008A3019F488E790E0B3
:1003500096DF80917800893021F4A898A998C298F6
:10036000C19808959A9B05C09B9908C0A89AA9981E
:1003700007C09B9B03C0A99AA89802C0A89AA99AF3
:100380009C9B08C09D9B03C0C19AC29A0895C19AC4
:10039000C29808959D9B03C0C29AC1980895C29ABD
:1003A000C19A0895CF93DF9380E590E009DF8699A5
:1003B00002C0859B50C0A898A998C298C19880E0B7
:1003C00090E020E02F5F2931E9F7019637E2803194
:1003D0009307B9F78AE080936A0020936B00C0E02E
:1003E000D0E088E790E00BDF90916A0080E002C0E7
:1003F0008F5F9AE08730E0F390936A0080936B0000
:10040000219683E0C83ED80761F780E090E020E0C5
:100410002F5F2931E9F7019637E280319307B9F769
:100420008AE080936A0020936B00C0E0D0E084E60D
:1004300090E025DF90916A0080E002C08F5F9AE033
:100440008530E0F390936A0080936B00219683E0FF
:10045000C83ED80761F7DF91CF910895CF93DF931E
:1004600080E590E0ADDE879941C0A898A998C29830
:10047000C19880E090E021E02F5F2A31E9F70196F2
:1004800027E280319207B9F78AE080936A0089E118
:1004900080936B00C0E0D0E088E790E0B0DE909100
:1004A0006A0080E002C08F5F9AE08730E0F39093AB
:1004B0006A0080936B00219633E0C83ED30761F752
:1004C000C0E0D0E084E690E0B9DE90916A0080E080
:1004D00002C08F5F9AE08530E0F390936A008093CA
:1004E0006B00219683E0C83ED80761F7869940C02B
:1004F000A898A998C298C19880E090E029E121507D
:10050000F1F7019627E280319207C1F78AE08093E4
:100510006A0089E180936B00C0E0D0E088E790E05A
:100520006EDE90916A0080E002C08F5F9AE08730B3
:10053000E0F390936A0080936B00219633E0C83E0D
:10054000D30761F7C0E0D0E084E690E077DE9091D9
:100550006A0080E002C08F5F9AE08530E0F39093FC
:100560006A0080936B00219683E0C83ED80761F74C
:10057000859940C0A898A998C298C19880E090E059
:1005800020E02F5F2931E9F7019637E280319307A8
:10059000B9F78AE080936A0020936B00C0E0D0E056
:1005A00088E790E02CDE90916A0080E002C08F5FC7
:1005B0009AE08730E0F390936A0080936B00219675
:1005C00083E0C83ED80761F7C0E0D0E084E690E061
:1005D00056DE90916A0080E002C08F5F9AE085301D
:1005E000E0F390936A0080936B00219623E0C83E6D
:1005F000D20761F7DF91CF91089583E084BB86E055
:1006000087BB11BAAC9AAD9AC69AC79AC09AAA9AF1
:10061000AB9AB69B0EC0B79B06C0B09B02C055DE1E
:10062000F8CFA0DEF6CFB09B02C0BCDEF2CF73DE07
:10063000F0CFB79BEECFB09BECCF10DFEACF991B8A
:1006400079E004C0991F961708F0961B881F7A95C9
:10065000C9F78095089597FB092E07260AD077FDE4
:1006600004D00CD006D000201AF4709561957F4F0D
:100670000895F6F7909581959F4F0895AA1BBB1B8F
:1006800051E107C0AA1FBB1FA617B70710F0A61B92
:10069000B70B881F991F5A95A9F780959095BC01B3
:0806A000CD010895F894FFCF8D
:0A06A800303132333435363738393B
:00000001FF
